{
    "contractName": "Buy",
    "abi": [
        {
            "inputs": [
                {
                    "internalType": "address",
                    "name": "_token",
                    "type": "address"
                }
            ],
            "stateMutability": "nonpayable",
            "type": "constructor"
        },
        {
            "inputs": [],
            "name": "buyToken",
            "outputs": [],
            "stateMutability": "payable",
            "type": "function"
        },
        {
            "inputs": [],
            "name": "owner",
            "outputs": [
                {
                    "internalType": "address",
                    "name": "",
                    "type": "address"
                }
            ],
            "stateMutability": "view",
            "type": "function"
        },
        {
            "inputs": [],
            "name": "price",
            "outputs": [
                {
                    "internalType": "uint256",
                    "name": "",
                    "type": "uint256"
                }
            ],
            "stateMutability": "view",
            "type": "function"
        },
        {
            "inputs": [
                {
                    "internalType": "uint256",
                    "name": "_amount",
                    "type": "uint256"
                }
            ],
            "name": "sellToken",
            "outputs": [],
            "stateMutability": "nonpayable",
            "type": "function"
        },
        {
            "inputs": [
                {
                    "internalType": "uint256",
                    "name": "_amount",
                    "type": "uint256"
                }
            ],
            "name": "withdraw",
            "outputs": [],
            "stateMutability": "nonpayable",
            "type": "function"
        }
    ],
    "bytecode": "608060405234801561001057600080fd5b506040516106e33803806106e383398101604081905261002f91610061565b600080546001600160a01b039092166001600160a01b0319928316179055600180556002805490911633179055610091565b60006020828403121561007357600080fd5b81516001600160a01b038116811461008a57600080fd5b9392505050565b610643806100a06000396000f3fe60806040526004361061004a5760003560e01c80632397e4d71461004f5780632e1a7d4d146100715780638da5cb5b14610091578063a035b1fe146100ce578063a4821719146100f2575b600080fd5b34801561005b57600080fd5b5061006f61006a3660046105ae565b6100fa565b005b34801561007d57600080fd5b5061006f61008c3660046105ae565b6102d9565b34801561009d57600080fd5b506002546100b1906001600160a01b031681565b6040516001600160a01b0390911681526020015b60405180910390f35b3480156100da57600080fd5b506100e460015481565b6040519081526020016100c5565b61006f6103cb565b600081116101485760405162461bcd60e51b81526020600482015260166024820152752cb7ba903732b2b21039b2b636101f18103a37b5b2b760511b60448201526064015b60405180910390fd5b60008054604051636eb1769f60e11b81523360048201523060248201526001600160a01b039091169063dd62ed3e9060440160206040518083038186803b15801561019257600080fd5b505afa1580156101a6573d6000803e3d6000fd5b505050506040513d601f19601f820116820180604052508101906101ca91906105c7565b90508181101561021c5760405162461bcd60e51b815260206004820152601960248201527f436865636b2074686520746f6b656e20616c6c6f77656e636500000000000000604482015260640161013f565b6000546040516323b872dd60e01b8152336004820152306024820152604481018490526001600160a01b03909116906323b872dd90606401602060405180830381600087803b15801561026e57600080fd5b505af1158015610282573d6000803e3d6000fd5b505050506040513d601f19601f820116820180604052508101906102a69190610585565b50604051339083156108fc029084906000818181858888f193505050501580156102d4573d6000803e3d6000fd5b505050565b6002546001600160a01b0316331461033e5760405162461bcd60e51b815260206004820152602260248201527f4f6e6c79206f776e65722063616e2063616c6c20746869732066756e6374696f604482015261371760f11b606482015260840161013f565b60015461034b90826105e0565b47101561039a5760405162461bcd60e51b815260206004820152601c60248201527f4275793a3a48617665206e6f7420656e6f7567682062616c616e636500000000604482015260640161013f565b604051339082156108fc029083906000818181858888f193505050501580156103c7573d6000803e3d6000fd5b5050565b6000341161040a5760405162461bcd60e51b815260206004820152600c60248201526b0b2deea40dccacac8408aa8960a31b604482015260640161013f565b60015461041790346105e0565b6000546040516370a0823160e01b81523060048201526001600160a01b03909116906370a082319060240160206040518083038186803b15801561045a57600080fd5b505afa15801561046e573d6000803e3d6000fd5b505050506040513d601f19601f8201168201806040525081019061049291906105c7565b10156104e05760405162461bcd60e51b815260206004820152601c60248201527f4275793a3a48617665206e6f7420656e6f7567682062616c616e636500000000604482015260640161013f565b6000546001546001600160a01b039091169063a9059cbb90339061050490346105e0565b6040516001600160e01b031960e085901b1681526001600160a01b0390921660048301526024820152604401602060405180830381600087803b15801561054a57600080fd5b505af115801561055e573d6000803e3d6000fd5b505050506040513d601f19601f820116820180604052508101906105829190610585565b50565b60006020828403121561059757600080fd5b815180151581146105a757600080fd5b9392505050565b6000602082840312156105c057600080fd5b5035919050565b6000602082840312156105d957600080fd5b5051919050565b600081600019048311821515161561060857634e487b7160e01b600052601160045260246000fd5b50029056fea264697066735822122064bd081481ec3c4ef33ed69f730e2347c8ceb4c7f120fcf4f9ab68717a8d9c8c64736f6c63430008060033",
    "sourcePath": "/home/levon/Projects/inClass/firstProject/contracts/BuyandSell.sol",
    "compiler": {
        "name": "solc",
        "version": "0.8.6+commit.11564f7e"
    },
    "functionHashes": {
        "buyToken()": "a4821719",
        "owner()": "8da5cb5b",
        "price()": "a035b1fe",
        "sellToken(uint256)": "2397e4d7",
        "withdraw(uint256)": "2e1a7d4d"
    },
    "gasEstimates": {
        "creation": {
            "codeDepositCost": "320600",
            "executionCost": "infinite",
            "totalCost": "infinite"
        },
        "external": {
            "buyToken()": "infinite",
            "owner()": "2348",
            "price()": "2339",
            "sellToken(uint256)": "infinite",
            "withdraw(uint256)": "infinite"
        }
    }
}